{
  "_format": "hh-sol-artifact-1",
  "contractName": "Booking",
  "sourceName": "contracts/Booking.sol",
  "abi": [
    {
      "inputs": [
        {
          "internalType": "uint256",
          "name": "_taxPercent",
          "type": "uint256"
        },
        {
          "internalType": "uint256",
          "name": "_securityFee",
          "type": "uint256"
        }
      ],
      "stateMutability": "nonpayable",
      "type": "constructor"
    },
    {
      "anonymous": false,
      "inputs": [
        {
          "indexed": true,
          "internalType": "address",
          "name": "previousOwner",
          "type": "address"
        },
        {
          "indexed": true,
          "internalType": "address",
          "name": "newOwner",
          "type": "address"
        }
      ],
      "name": "OwnershipTransferred",
      "type": "event"
    },
    {
      "anonymous": false,
      "inputs": [
        {
          "indexed": false,
          "internalType": "uint256",
          "name": "newFee",
          "type": "uint256"
        }
      ],
      "name": "SecurityFeeUpdated",
      "type": "event"
    },
    {
      "inputs": [
        {
          "internalType": "uint256",
          "name": "appartmentId",
          "type": "uint256"
        },
        {
          "internalType": "string",
          "name": "reviewText",
          "type": "string"
        }
      ],
      "name": "addReview",
      "outputs": [],
      "stateMutability": "nonpayable",
      "type": "function"
    },
    {
      "inputs": [
        {
          "internalType": "uint256",
          "name": "id",
          "type": "uint256"
        },
        {
          "internalType": "uint256[]",
          "name": "dates",
          "type": "uint256[]"
        }
      ],
      "name": "bookApartment",
      "outputs": [],
      "stateMutability": "payable",
      "type": "function"
    },
    {
      "inputs": [
        {
          "internalType": "uint256",
          "name": "id",
          "type": "uint256"
        },
        {
          "internalType": "uint256",
          "name": "bookingId",
          "type": "uint256"
        }
      ],
      "name": "checkInApartment",
      "outputs": [],
      "stateMutability": "nonpayable",
      "type": "function"
    },
    {
      "inputs": [
        {
          "internalType": "uint256",
          "name": "id",
          "type": "uint256"
        },
        {
          "internalType": "uint256",
          "name": "bookingId",
          "type": "uint256"
        }
      ],
      "name": "claimFunds",
      "outputs": [],
      "stateMutability": "nonpayable",
      "type": "function"
    },
    {
      "inputs": [
        {
          "internalType": "string",
          "name": "name",
          "type": "string"
        },
        {
          "internalType": "string",
          "name": "description",
          "type": "string"
        },
        {
          "internalType": "string",
          "name": "images",
          "type": "string"
        },
        {
          "internalType": "uint256",
          "name": "rooms",
          "type": "uint256"
        },
        {
          "internalType": "uint256",
          "name": "price",
          "type": "uint256"
        }
      ],
      "name": "createAppartment",
      "outputs": [],
      "stateMutability": "nonpayable",
      "type": "function"
    },
    {
      "inputs": [
        {
          "internalType": "uint256",
          "name": "id",
          "type": "uint256"
        }
      ],
      "name": "deleteAppartment",
      "outputs": [],
      "stateMutability": "nonpayable",
      "type": "function"
    },
    {
      "inputs": [
        {
          "internalType": "uint256",
          "name": "id",
          "type": "uint256"
        }
      ],
      "name": "getApartment",
      "outputs": [
        {
          "components": [
            {
              "internalType": "uint256",
              "name": "id",
              "type": "uint256"
            },
            {
              "internalType": "string",
              "name": "name",
              "type": "string"
            },
            {
              "internalType": "string",
              "name": "description",
              "type": "string"
            },
            {
              "internalType": "string",
              "name": "images",
              "type": "string"
            },
            {
              "internalType": "uint256",
              "name": "rooms",
              "type": "uint256"
            },
            {
              "internalType": "uint256",
              "name": "price",
              "type": "uint256"
            },
            {
              "internalType": "address",
              "name": "owner",
              "type": "address"
            },
            {
              "internalType": "bool",
              "name": "booked",
              "type": "bool"
            },
            {
              "internalType": "bool",
              "name": "deleted",
              "type": "bool"
            },
            {
              "internalType": "bool",
              "name": "availablity",
              "type": "bool"
            },
            {
              "internalType": "uint256",
              "name": "timestamp",
              "type": "uint256"
            }
          ],
          "internalType": "struct Booking.ApartmentStruct",
          "name": "",
          "type": "tuple"
        }
      ],
      "stateMutability": "view",
      "type": "function"
    },
    {
      "inputs": [],
      "name": "getApartments",
      "outputs": [
        {
          "components": [
            {
              "internalType": "uint256",
              "name": "id",
              "type": "uint256"
            },
            {
              "internalType": "string",
              "name": "name",
              "type": "string"
            },
            {
              "internalType": "string",
              "name": "description",
              "type": "string"
            },
            {
              "internalType": "string",
              "name": "images",
              "type": "string"
            },
            {
              "internalType": "uint256",
              "name": "rooms",
              "type": "uint256"
            },
            {
              "internalType": "uint256",
              "name": "price",
              "type": "uint256"
            },
            {
              "internalType": "address",
              "name": "owner",
              "type": "address"
            },
            {
              "internalType": "bool",
              "name": "booked",
              "type": "bool"
            },
            {
              "internalType": "bool",
              "name": "deleted",
              "type": "bool"
            },
            {
              "internalType": "bool",
              "name": "availablity",
              "type": "bool"
            },
            {
              "internalType": "uint256",
              "name": "timestamp",
              "type": "uint256"
            }
          ],
          "internalType": "struct Booking.ApartmentStruct[]",
          "name": "Apartments",
          "type": "tuple[]"
        }
      ],
      "stateMutability": "view",
      "type": "function"
    },
    {
      "inputs": [
        {
          "internalType": "uint256",
          "name": "id",
          "type": "uint256"
        },
        {
          "internalType": "uint256",
          "name": "bookingId",
          "type": "uint256"
        }
      ],
      "name": "getBooking",
      "outputs": [
        {
          "components": [
            {
              "internalType": "uint256",
              "name": "id",
              "type": "uint256"
            },
            {
              "internalType": "address",
              "name": "tenant",
              "type": "address"
            },
            {
              "internalType": "uint256",
              "name": "date",
              "type": "uint256"
            },
            {
              "internalType": "uint256",
              "name": "price",
              "type": "uint256"
            },
            {
              "internalType": "bool",
              "name": "checked",
              "type": "bool"
            },
            {
              "internalType": "bool",
              "name": "cancelled",
              "type": "bool"
            }
          ],
          "internalType": "struct Booking.BookingStruct",
          "name": "",
          "type": "tuple"
        }
      ],
      "stateMutability": "view",
      "type": "function"
    },
    {
      "inputs": [
        {
          "internalType": "uint256",
          "name": "id",
          "type": "uint256"
        }
      ],
      "name": "getBookings",
      "outputs": [
        {
          "components": [
            {
              "internalType": "uint256",
              "name": "id",
              "type": "uint256"
            },
            {
              "internalType": "address",
              "name": "tenant",
              "type": "address"
            },
            {
              "internalType": "uint256",
              "name": "date",
              "type": "uint256"
            },
            {
              "internalType": "uint256",
              "name": "price",
              "type": "uint256"
            },
            {
              "internalType": "bool",
              "name": "checked",
              "type": "bool"
            },
            {
              "internalType": "bool",
              "name": "cancelled",
              "type": "bool"
            }
          ],
          "internalType": "struct Booking.BookingStruct[]",
          "name": "",
          "type": "tuple[]"
        }
      ],
      "stateMutability": "view",
      "type": "function"
    },
    {
      "inputs": [
        {
          "internalType": "uint256",
          "name": "appartmentId",
          "type": "uint256"
        }
      ],
      "name": "getReviews",
      "outputs": [
        {
          "components": [
            {
              "internalType": "uint256",
              "name": "id",
              "type": "uint256"
            },
            {
              "internalType": "uint256",
              "name": "appartmentId",
              "type": "uint256"
            },
            {
              "internalType": "string",
              "name": "reviewText",
              "type": "string"
            },
            {
              "internalType": "uint256",
              "name": "timestamp",
              "type": "uint256"
            },
            {
              "internalType": "address",
              "name": "owner",
              "type": "address"
            }
          ],
          "internalType": "struct Booking.ReviewStruct[]",
          "name": "",
          "type": "tuple[]"
        }
      ],
      "stateMutability": "view",
      "type": "function"
    },
    {
      "inputs": [
        {
          "internalType": "uint256",
          "name": "id",
          "type": "uint256"
        }
      ],
      "name": "getUnavailableDates",
      "outputs": [
        {
          "internalType": "uint256[]",
          "name": "",
          "type": "uint256[]"
        }
      ],
      "stateMutability": "view",
      "type": "function"
    },
    {
      "inputs": [
        {
          "internalType": "uint256",
          "name": "id",
          "type": "uint256"
        },
        {
          "internalType": "uint256",
          "name": "bookingId",
          "type": "uint256"
        }
      ],
      "name": "hasBookedDateReached",
      "outputs": [
        {
          "internalType": "bool",
          "name": "",
          "type": "bool"
        }
      ],
      "stateMutability": "view",
      "type": "function"
    },
    {
      "inputs": [],
      "name": "owner",
      "outputs": [
        {
          "internalType": "address",
          "name": "",
          "type": "address"
        }
      ],
      "stateMutability": "view",
      "type": "function"
    },
    {
      "inputs": [
        {
          "internalType": "uint256",
          "name": "id",
          "type": "uint256"
        },
        {
          "internalType": "uint256",
          "name": "bookingId",
          "type": "uint256"
        },
        {
          "internalType": "uint256",
          "name": "date",
          "type": "uint256"
        }
      ],
      "name": "refundBooking",
      "outputs": [],
      "stateMutability": "nonpayable",
      "type": "function"
    },
    {
      "inputs": [],
      "name": "renounceOwnership",
      "outputs": [],
      "stateMutability": "nonpayable",
      "type": "function"
    },
    {
      "inputs": [],
      "name": "securityFee",
      "outputs": [
        {
          "internalType": "uint256",
          "name": "",
          "type": "uint256"
        }
      ],
      "stateMutability": "view",
      "type": "function"
    },
    {
      "inputs": [],
      "name": "taxPercent",
      "outputs": [
        {
          "internalType": "uint256",
          "name": "",
          "type": "uint256"
        }
      ],
      "stateMutability": "view",
      "type": "function"
    },
    {
      "inputs": [
        {
          "internalType": "uint256",
          "name": "appartmentId",
          "type": "uint256"
        }
      ],
      "name": "tenantBooked",
      "outputs": [
        {
          "internalType": "bool",
          "name": "",
          "type": "bool"
        }
      ],
      "stateMutability": "view",
      "type": "function"
    },
    {
      "inputs": [
        {
          "internalType": "address",
          "name": "newOwner",
          "type": "address"
        }
      ],
      "name": "transferOwnership",
      "outputs": [],
      "stateMutability": "nonpayable",
      "type": "function"
    },
    {
      "inputs": [
        {
          "internalType": "uint256",
          "name": "id",
          "type": "uint256"
        },
        {
          "internalType": "string",
          "name": "name",
          "type": "string"
        },
        {
          "internalType": "string",
          "name": "description",
          "type": "string"
        },
        {
          "internalType": "string",
          "name": "images",
          "type": "string"
        },
        {
          "internalType": "uint256",
          "name": "rooms",
          "type": "uint256"
        },
        {
          "internalType": "uint256",
          "name": "price",
          "type": "uint256"
        }
      ],
      "name": "updateAppartment",
      "outputs": [],
      "stateMutability": "nonpayable",
      "type": "function"
    },
    {
      "inputs": [
        {
          "internalType": "uint256",
          "name": "newFee",
          "type": "uint256"
        }
      ],
      "name": "updateSecurityFee",
      "outputs": [],
      "stateMutability": "nonpayable",
      "type": "function"
    },
    {
      "inputs": [
        {
          "internalType": "uint256",
          "name": "newTaxPercent",
          "type": "uint256"
        }
      ],
      "name": "updateTaxPercent",
      "outputs": [],
      "stateMutability": "nonpayable",
      "type": "function"
    }
  ],
  "bytecode": "0x60806040523480156200001157600080fd5b5060405162004e9038038062004e90833981810160405281019062000037919062000180565b620000576200004b6200007460201b60201c565b6200007c60201b60201c565b6001808190555081600481905550806003819055505050620001c7565b600033905090565b60008060009054906101000a900473ffffffffffffffffffffffffffffffffffffffff169050816000806101000a81548173ffffffffffffffffffffffffffffffffffffffff021916908373ffffffffffffffffffffffffffffffffffffffff1602179055508173ffffffffffffffffffffffffffffffffffffffff168173ffffffffffffffffffffffffffffffffffffffff167f8be0079c531659141344cd1fd0a4f28419497f9722a3daafe3b4186f6b6457e060405160405180910390a35050565b600080fd5b6000819050919050565b6200015a8162000145565b81146200016657600080fd5b50565b6000815190506200017a816200014f565b92915050565b600080604083850312156200019a576200019962000140565b5b6000620001aa8582860162000169565b9250506020620001bd8582860162000169565b9150509250929050565b614cb980620001d76000396000f3fe6080604052600436106101405760003560e01c8063b1c98099116100b6578063df6e02221161006f578063df6e022214610458578063e16ca8d114610474578063eb4614451461049d578063f2fde38b146104c6578063f4010995146104ef578063f6ab7e3d1461052c57610140565b8063b1c9809914610336578063c4452e0614610361578063d5ea1cb81461039e578063d68e1302146103c7578063db2f80b7146103f2578063dec30d391461042f57610140565b80637541f41c116101085780637541f41c1461021457806378419f611461023f5780638da5cb5b146102685780639d4a2255146102935780639f31a2be146102d0578063ade652db1461030d57610140565b8063010b58ee14610145578063455b30701461016e5780635bb0c5d6146101ab57806361591149146101d4578063715018a6146101fd575b600080fd5b34801561015157600080fd5b5061016c60048036038101906101679190613063565b610569565b005b34801561017a57600080fd5b5061019560048036038101906101909190613063565b610758565b6040516101a29190613189565b60405180910390f35b3480156101b757600080fd5b506101d260048036038101906101cd91906132ea565b610850565b005b3480156101e057600080fd5b506101fb60048036038101906101f69190613346565b610acd565b005b34801561020957600080fd5b50610212610b23565b005b34801561022057600080fd5b50610229610b37565b6040516102369190613382565b60405180910390f35b34801561024b57600080fd5b5061026660048036038101906102619190613063565b610b3d565b005b34801561027457600080fd5b5061027d610e04565b60405161028a91906133ac565b60405180910390f35b34801561029f57600080fd5b506102ba60048036038101906102b59190613346565b610e2d565b6040516102c7919061357e565b60405180910390f35b3480156102dc57600080fd5b506102f760048036038101906102f29190613346565b610fa5565b60405161030491906135af565b60405180910390f35b34801561031957600080fd5b50610334600480360381019061032f91906135ca565b61100c565b005b34801561034257600080fd5b5061034b611373565b6040516103589190613858565b60405180910390f35b34801561036d57600080fd5b5061038860048036038101906103839190613346565b611758565b6040516103959190613977565b60405180910390f35b3480156103aa57600080fd5b506103c560048036038101906103c09190613999565b611a0b565b005b3480156103d357600080fd5b506103dc612073565b6040516103e99190613382565b60405180910390f35b3480156103fe57600080fd5b5061041960048036038101906104149190613346565b612079565b6040516104269190613b29565b60405180910390f35b34801561043b57600080fd5b5061045660048036038101906104519190613346565b6120e4565b005b610472600480360381019061046d9190613c13565b61224d565b005b34801561048057600080fd5b5061049b60048036038101906104969190613c6f565b6125c0565b005b3480156104a957600080fd5b506104c460048036038101906104bf9190613346565b6129f2565b005b3480156104d257600080fd5b506104ed60048036038101906104e89190613cee565b612a04565b005b3480156104fb57600080fd5b5061051660048036038101906105119190613346565b612a87565b6040516105239190613e45565b60405180910390f35b34801561053857600080fd5b50610553600480360381019061054e9190613063565b612ba3565b60405161056091906135af565b60405180910390f35b6005600083815260200190815260200160002060060160009054906101000a900473ffffffffffffffffffffffffffffffffffffffff1673ffffffffffffffffffffffffffffffffffffffff163373ffffffffffffffffffffffffffffffffffffffff161461060d576040517f08c379a000000000000000000000000000000000000000000000000000000000815260040161060490613ec4565b60405180910390fd5b60066000838152602001908152602001600020818154811061063257610631613ee4565b5b906000526020600020906005020160040160009054906101000a900460ff1615610691576040517f08c379a000000000000000000000000000000000000000000000000000000000815260040161068890613f85565b60405180910390fd5b60006006600084815260200190815260200160002082815481106106b8576106b7613ee4565b5b906000526020600020906005020160030154905060006064600454836106de9190613fd4565b6106e89190614045565b90506107356005600086815260200190815260200160002060060160009054906101000a900473ffffffffffffffffffffffffffffffffffffffff1682846107309190614076565b612bed565b610746610740610e04565b82612bed565b61075233600354612bed565b50505050565b610760612f0e565b60066000848152602001908152602001600020828154811061078557610784613ee4565b5b90600052602060002090600502016040518060c0016040529081600082015481526020016001820160009054906101000a900473ffffffffffffffffffffffffffffffffffffffff1673ffffffffffffffffffffffffffffffffffffffff1673ffffffffffffffffffffffffffffffffffffffff16815260200160028201548152602001600382015481526020016004820160009054906101000a900460ff161515151581526020016004820160019054906101000a900460ff161515151581525050905092915050565b6008600083815260200190815260200160002060009054906101000a900460ff166108b0576040517f08c379a00000000000000000000000000000000000000000000000000000000081526004016108a7906140f6565b60405180910390fd5b600b60003373ffffffffffffffffffffffffffffffffffffffff1673ffffffffffffffffffffffffffffffffffffffff168152602001908152602001600020600083815260200190815260200160002060009054906101000a900460ff1661094d576040517f08c379a000000000000000000000000000000000000000000000000000000000815260040161094490614162565b60405180910390fd5b6000815111610991576040517f08c379a0000000000000000000000000000000000000000000000000000000008152600401610988906141ce565b60405180910390fd5b610999612f5e565b6007600084815260200190815260200160002080549050816000018181525050828160200181815250508181604001819052504281606001818152505033816080019073ffffffffffffffffffffffffffffffffffffffff16908173ffffffffffffffffffffffffffffffffffffffff16815250506007600084815260200190815260200160002081908060018154018082558091505060019003906000526020600020906005020160009091909190915060008201518160000155602082015181600101556040820151816002019081610a7491906143fa565b506060820151816003015560808201518160040160006101000a81548173ffffffffffffffffffffffffffffffffffffffff021916908373ffffffffffffffffffffffffffffffffffffffff1602179055505050505050565b610ad5612c68565b60008111610ae257600080fd5b806003819055507f3790aeee57809af98fad1b89b9266c7934e03ed46702b541f2fef6f1e89d682781604051610b189190613382565b60405180910390a150565b610b2b612c68565b610b356000612ce6565b565b60045481565b600660008381526020019081526020016000208181548110610b6257610b61613ee4565b5b906000526020600020906005020160010160009054906101000a900473ffffffffffffffffffffffffffffffffffffffff1673ffffffffffffffffffffffffffffffffffffffff163373ffffffffffffffffffffffffffffffffffffffff1614610c01576040517f08c379a0000000000000000000000000000000000000000000000000000000008152600401610bf890614518565b60405180910390fd5b600660008381526020019081526020016000208181548110610c2657610c25613ee4565b5b906000526020600020906005020160040160009054906101000a900460ff1615610c85576040517f08c379a0000000000000000000000000000000000000000000000000000000008152600401610c7c90613f85565b60405180910390fd5b6001600660008481526020019081526020016000208281548110610cac57610cab613ee4565b5b906000526020600020906005020160040160006101000a81548160ff0219169083151502179055506000600660008481526020019081526020016000208281548110610cfb57610cfa613ee4565b5b90600052602060002090600502016003015490506000606460045483610d219190613fd4565b610d2b9190614045565b90506001600b60003373ffffffffffffffffffffffffffffffffffffffff1673ffffffffffffffffffffffffffffffffffffffff168152602001908152602001600020600086815260200190815260200160002060006101000a81548160ff021916908315150217905550610de16005600086815260200190815260200160002060060160009054906101000a900473ffffffffffffffffffffffffffffffffffffffff168284610ddc9190614076565b612bed565b610df2610dec610e04565b82612bed565b610dfe33600354612bed565b50505050565b60008060009054906101000a900473ffffffffffffffffffffffffffffffffffffffff16905090565b606060076000838152602001908152602001600020805480602002602001604051908101604052809291908181526020016000905b82821015610f9a57838290600052602060002090600502016040518060a00160405290816000820154815260200160018201548152602001600282018054610ea99061421d565b80601f0160208091040260200160405190810160405280929190818152602001828054610ed59061421d565b8015610f225780601f10610ef757610100808354040283529160200191610f22565b820191906000526020600020905b815481529060010190602001808311610f0557829003601f168201915b50505050508152602001600382015481526020016004820160009054906101000a900473ffffffffffffffffffffffffffffffffffffffff1673ffffffffffffffffffffffffffffffffffffffff1673ffffffffffffffffffffffffffffffffffffffff168152505081526020019060010190610e62565b505050509050919050565b6000600b60003373ffffffffffffffffffffffffffffffffffffffff1673ffffffffffffffffffffffffffffffffffffffff168152602001908152602001600020600083815260200190815260200160002060009054906101000a900460ff169050919050565b6000855111611050576040517f08c379a000000000000000000000000000000000000000000000000000000000815260040161104790614584565b60405180910390fd5b6000845111611094576040517f08c379a000000000000000000000000000000000000000000000000000000000815260040161108b906145f0565b60405180910390fd5b60008351116110d8576040517f08c379a00000000000000000000000000000000000000000000000000000000081526004016110cf9061465c565b60405180910390fd5b6000821161111b576040517f08c379a0000000000000000000000000000000000000000000000000000000008152600401611112906146c8565b60405180910390fd5b6000811161115e576040517f08c379a000000000000000000000000000000000000000000000000000000000815260040161115590614734565b60405180910390fd5b6111686002612daa565b611170612fa3565b61117a6002612dc0565b81600001818152505085816020018190525084816040018190525083816060018190525082816080018181525050818160a0018181525050338160c0019073ffffffffffffffffffffffffffffffffffffffff16908173ffffffffffffffffffffffffffffffffffffffff168152505060018161012001901515908115158152505042816101400181815250506001600860008360000151815260200190815260200160002060006101000a81548160ff02191690831515021790555080600560006112466002612dc0565b815260200190815260200160002060008201518160000155602082015181600101908161127391906143fa565b50604082015181600201908161128991906143fa565b50606082015181600301908161129f91906143fa565b506080820151816004015560a0820151816005015560c08201518160060160006101000a81548173ffffffffffffffffffffffffffffffffffffffff021916908373ffffffffffffffffffffffffffffffffffffffff16021790555060e08201518160060160146101000a81548160ff0219169083151502179055506101008201518160060160156101000a81548160ff0219169083151502179055506101208201518160060160166101000a81548160ff0219169083151502179055506101408201518160070155905050505050505050565b6060600080600190505b6113876002612dc0565b81116113d7576005600082815260200190815260200160002060060160159054906101000a900460ff166113c45781806113c090614754565b9250505b80806113cf90614754565b91505061137d565b508067ffffffffffffffff8111156113f2576113f16131bf565b5b60405190808252806020026020018201604052801561142b57816020015b611418612fa3565b8152602001906001900390816114105790505b509150600080600190505b6114406002612dc0565b8111611752576005600082815260200190815260200160002060060160159054906101000a900460ff1661173f576005600082815260200190815260200160002060405180610160016040529081600082015481526020016001820180546114a79061421d565b80601f01602080910402602001604051908101604052809291908181526020018280546114d39061421d565b80156115205780601f106114f557610100808354040283529160200191611520565b820191906000526020600020905b81548152906001019060200180831161150357829003601f168201915b505050505081526020016002820180546115399061421d565b80601f01602080910402602001604051908101604052809291908181526020018280546115659061421d565b80156115b25780601f10611587576101008083540402835291602001916115b2565b820191906000526020600020905b81548152906001019060200180831161159557829003601f168201915b505050505081526020016003820180546115cb9061421d565b80601f01602080910402602001604051908101604052809291908181526020018280546115f79061421d565b80156116445780601f1061161957610100808354040283529160200191611644565b820191906000526020600020905b81548152906001019060200180831161162757829003601f168201915b5050505050815260200160048201548152602001600582015481526020016006820160009054906101000a900473ffffffffffffffffffffffffffffffffffffffff1673ffffffffffffffffffffffffffffffffffffffff1673ffffffffffffffffffffffffffffffffffffffff1681526020016006820160149054906101000a900460ff161515151581526020016006820160159054906101000a900460ff161515151581526020016006820160169054906101000a900460ff1615151515815260200160078201548152505084838151811061172557611724613ee4565b5b6020026020010181905250818061173b90614754565b9250505b808061174a90614754565b915050611436565b50505090565b611760612fa3565b6005600083815260200190815260200160002060405180610160016040529081600082015481526020016001820180546117999061421d565b80601f01602080910402602001604051908101604052809291908181526020018280546117c59061421d565b80156118125780601f106117e757610100808354040283529160200191611812565b820191906000526020600020905b8154815290600101906020018083116117f557829003601f168201915b5050505050815260200160028201805461182b9061421d565b80601f01602080910402602001604051908101604052809291908181526020018280546118579061421d565b80156118a45780601f10611879576101008083540402835291602001916118a4565b820191906000526020600020905b81548152906001019060200180831161188757829003601f168201915b505050505081526020016003820180546118bd9061421d565b80601f01602080910402602001604051908101604052809291908181526020018280546118e99061421d565b80156119365780601f1061190b57610100808354040283529160200191611936565b820191906000526020600020905b81548152906001019060200180831161191957829003601f168201915b5050505050815260200160048201548152602001600582015481526020016006820160009054906101000a900473ffffffffffffffffffffffffffffffffffffffff1673ffffffffffffffffffffffffffffffffffffffff1673ffffffffffffffffffffffffffffffffffffffff1681526020016006820160149054906101000a900460ff161515151581526020016006820160159054906101000a900460ff161515151581526020016006820160169054906101000a900460ff161515151581526020016007820154815250509050919050565b600115156008600088815260200190815260200160002060009054906101000a900460ff16151514611a72576040517f08c379a0000000000000000000000000000000000000000000000000000000008152600401611a69906147e8565b60405180910390fd5b6005600087815260200190815260200160002060060160009054906101000a900473ffffffffffffffffffffffffffffffffffffffff1673ffffffffffffffffffffffffffffffffffffffff163373ffffffffffffffffffffffffffffffffffffffff1614611b16576040517f08c379a0000000000000000000000000000000000000000000000000000000008152600401611b0d9061487a565b60405180910390fd5b6000855111611b5a576040517f08c379a0000000000000000000000000000000000000000000000000000000008152600401611b5190614584565b60405180910390fd5b6000845111611b9e576040517f08c379a0000000000000000000000000000000000000000000000000000000008152600401611b95906145f0565b60405180910390fd5b6000835111611be2576040517f08c379a0000000000000000000000000000000000000000000000000000000008152600401611bd99061465c565b60405180910390fd5b60008211611c25576040517f08c379a0000000000000000000000000000000000000000000000000000000008152600401611c1c906146c8565b60405180910390fd5b60008111611c68576040517f08c379a0000000000000000000000000000000000000000000000000000000008152600401611c5f90614734565b60405180910390fd5b6000600560008881526020019081526020016000206040518061016001604052908160008201548152602001600182018054611ca39061421d565b80601f0160208091040260200160405190810160405280929190818152602001828054611ccf9061421d565b8015611d1c5780601f10611cf157610100808354040283529160200191611d1c565b820191906000526020600020905b815481529060010190602001808311611cff57829003601f168201915b50505050508152602001600282018054611d359061421d565b80601f0160208091040260200160405190810160405280929190818152602001828054611d619061421d565b8015611dae5780601f10611d8357610100808354040283529160200191611dae565b820191906000526020600020905b815481529060010190602001808311611d9157829003601f168201915b50505050508152602001600382018054611dc79061421d565b80601f0160208091040260200160405190810160405280929190818152602001828054611df39061421d565b8015611e405780601f10611e1557610100808354040283529160200191611e40565b820191906000526020600020905b815481529060010190602001808311611e2357829003601f168201915b5050505050815260200160048201548152602001600582015481526020016006820160009054906101000a900473ffffffffffffffffffffffffffffffffffffffff1673ffffffffffffffffffffffffffffffffffffffff1673ffffffffffffffffffffffffffffffffffffffff1681526020016006820160149054906101000a900460ff161515151581526020016006820160159054906101000a900460ff161515151581526020016006820160169054906101000a900460ff16151515158152602001600782015481525050905085816020018190525084816040018190525083816060018190525082816080018181525050818160a00181815250508060056000898152602001908152602001600020600082015181600001556020820151816001019081611f7291906143fa565b506040820151816002019081611f8891906143fa565b506060820151816003019081611f9e91906143fa565b506080820151816004015560a0820151816005015560c08201518160060160006101000a81548173ffffffffffffffffffffffffffffffffffffffff021916908373ffffffffffffffffffffffffffffffffffffffff16021790555060e08201518160060160146101000a81548160ff0219169083151502179055506101008201518160060160156101000a81548160ff0219169083151502179055506101208201518160060160166101000a81548160ff021916908315150217905550610140820151816007015590505050505050505050565b60035481565b6060600960008381526020019081526020016000208054806020026020016040519081016040528092919081815260200182805480156120d857602002820191906000526020600020905b8154815260200190600101908083116120c4575b50505050509050919050565b600115156008600083815260200190815260200160002060009054906101000a900460ff1615151461214b576040517f08c379a0000000000000000000000000000000000000000000000000000000008152600401612142906147e8565b60405180910390fd5b3373ffffffffffffffffffffffffffffffffffffffff166005600083815260200190815260200160002060060160009054906101000a900473ffffffffffffffffffffffffffffffffffffffff1673ffffffffffffffffffffffffffffffffffffffff16146121ef576040517f08c379a00000000000000000000000000000000000000000000000000000000081526004016121e690613ec4565b60405180910390fd5b60006008600083815260200190815260200160002060006101000a81548160ff02191690831515021790555060016005600083815260200190815260200160002060060160156101000a81548160ff02191690831515021790555050565b6008600083815260200190815260200160002060009054906101000a900460ff166122ad576040517f08c379a00000000000000000000000000000000000000000000000000000000081526004016122a4906148e6565b60405180910390fd5b600354815160056000858152602001908152602001600020600501546122d39190613fd4565b6122dd9190614906565b34101561231f576040517f08c379a000000000000000000000000000000000000000000000000000000000815260040161231690614986565b60405180910390fd5b6123298282612dce565b612368576040517f08c379a000000000000000000000000000000000000000000000000000000000815260040161235f906149f2565b60405180910390fd5b60005b81518110156125bb5761237c612f0e565b600660008581526020019081526020016000208054905081600001818152505033816020019073ffffffffffffffffffffffffffffffffffffffff16908173ffffffffffffffffffffffffffffffffffffffff16815250508282815181106123e7576123e6613ee4565b5b60200260200101518160400181815250506005600085815260200190815260200160002060050154816060018181525050600660008581526020019081526020016000208190806001815401808255809150506001900390600052602060002090600502016000909190919091506000820151816000015560208201518160010160006101000a81548173ffffffffffffffffffffffffffffffffffffffff021916908373ffffffffffffffffffffffffffffffffffffffff160217905550604082015181600201556060820151816003015560808201518160040160006101000a81548160ff02191690831515021790555060a08201518160040160016101000a81548160ff02191690831515021790555050506001600a6000868152602001908152602001600020600085858151811061252657612525613ee4565b5b6020026020010151815260200190815260200160002060006101000a81548160ff0219169083151502179055506009600085815260200190815260200160002083838151811061257957612578613ee4565b5b602002602001015190806001815401808255809150506001900390600052602060002001600090919091909150555080806125b390614754565b91505061236b565b505050565b6125c8612e89565b6006600084815260200190815260200160002082815481106125ed576125ec613ee4565b5b906000526020600020906005020160040160009054906101000a900460ff161561264c576040517f08c379a000000000000000000000000000000000000000000000000000000000815260040161264390613f85565b60405180910390fd5b612654610e04565b73ffffffffffffffffffffffffffffffffffffffff163373ffffffffffffffffffffffffffffffffffffffff16146127ca576006600084815260200190815260200160002082815481106126ab576126aa613ee4565b5b906000526020600020906005020160010160009054906101000a900473ffffffffffffffffffffffffffffffffffffffff1673ffffffffffffffffffffffffffffffffffffffff163373ffffffffffffffffffffffffffffffffffffffff161461274a576040517f08c379a000000000000000000000000000000000000000000000000000000000815260040161274190614518565b60405180910390fd5b612752612ed8565b60066000858152602001908152602001600020838154811061277757612776613ee4565b5b906000526020600020906005020160020154116127c9576040517f08c379a00000000000000000000000000000000000000000000000000000000081526004016127c090614a84565b60405180910390fd5b5b60016006600085815260200190815260200160002083815481106127f1576127f0613ee4565b5b906000526020600020906005020160040160016101000a81548160ff0219169083151502179055506000600a6000858152602001908152602001600020600083815260200190815260200160002060006101000a81548160ff02191690831515021790555060006001600960008681526020019081526020016000208054905061287b9190614076565b905060006009600086815260200190815260200160002082815481106128a4576128a3613ee4565b5b90600052602060002001549050806009600087815260200190815260200160002085815481106128d7576128d6613ee4565b5b90600052602060002001819055506009600086815260200190815260200160002080548061290857612907614aa4565b5b60019003818190600052602060002001600090559055600060066000878152602001908152602001600020858154811061294557612944613ee4565b5b90600052602060002090600502016003015490506000606460045460035461296d9190613fd4565b6129779190614045565b90506129c66005600089815260200190815260200160002060060160009054906101000a900473ffffffffffffffffffffffffffffffffffffffff16826003546129c19190614076565b612bed565b6129d76129d1610e04565b82612bed565b6129e13383612bed565b505050506129ed612efd565b505050565b6129fa612c68565b8060048190555050565b612a0c612c68565b600073ffffffffffffffffffffffffffffffffffffffff168173ffffffffffffffffffffffffffffffffffffffff1603612a7b576040517f08c379a0000000000000000000000000000000000000000000000000000000008152600401612a7290614b45565b60405180910390fd5b612a8481612ce6565b50565b606060066000838152602001908152602001600020805480602002602001604051908101604052809291908181526020016000905b82821015612b9857838290600052602060002090600502016040518060c0016040529081600082015481526020016001820160009054906101000a900473ffffffffffffffffffffffffffffffffffffffff1673ffffffffffffffffffffffffffffffffffffffff1673ffffffffffffffffffffffffffffffffffffffff16815260200160028201548152602001600382015481526020016004820160009054906101000a900460ff161515151581526020016004820160019054906101000a900460ff16151515158152505081526020019060010190612abc565b505050509050919050565b6000612bad612ed8565b600660008581526020019081526020016000208381548110612bd257612bd1613ee4565b5b90600052602060002090600502016002015410905092915050565b60008273ffffffffffffffffffffffffffffffffffffffff1682604051612c1390614b96565b60006040518083038185875af1925050503d8060008114612c50576040519150601f19603f3d011682016040523d82523d6000602084013e612c55565b606091505b5050905080612c6357600080fd5b505050565b612c70612f06565b73ffffffffffffffffffffffffffffffffffffffff16612c8e610e04565b73ffffffffffffffffffffffffffffffffffffffff1614612ce4576040517f08c379a0000000000000000000000000000000000000000000000000000000008152600401612cdb90614bf7565b60405180910390fd5b565b60008060009054906101000a900473ffffffffffffffffffffffffffffffffffffffff169050816000806101000a81548173ffffffffffffffffffffffffffffffffffffffff021916908373ffffffffffffffffffffffffffffffffffffffff1602179055508173ffffffffffffffffffffffffffffffffffffffff168173ffffffffffffffffffffffffffffffffffffffff167f8be0079c531659141344cd1fd0a4f28419497f9722a3daafe3b4186f6b6457e060405160405180910390a35050565b6001816000016000828254019250508190555050565b600081600001549050919050565b6000806001905060005b8351811015612e7e5760005b6009600087815260200190815260200160002080549050811015612e6a57600960008781526020019081526020016000208181548110612e2757612e26613ee4565b5b9060005260206000200154858381518110612e4557612e44613ee4565b5b602002602001015103612e5757600092505b8080612e6290614754565b915050612de4565b508080612e7690614754565b915050612dd8565b508091505092915050565b600260015403612ece576040517f08c379a0000000000000000000000000000000000000000000000000000000008152600401612ec590614c63565b60405180910390fd5b6002600181905550565b6000806103e88042612eea9190613fd4565b612ef49190614906565b90508091505090565b60018081905550565b600033905090565b6040518060c0016040528060008152602001600073ffffffffffffffffffffffffffffffffffffffff16815260200160008152602001600081526020016000151581526020016000151581525090565b6040518060a0016040528060008152602001600081526020016060815260200160008152602001600073ffffffffffffffffffffffffffffffffffffffff1681525090565b604051806101600160405280600081526020016060815260200160608152602001606081526020016000815260200160008152602001600073ffffffffffffffffffffffffffffffffffffffff168152602001600015158152602001600015158152602001600015158152602001600081525090565b6000604051905090565b600080fd5b600080fd5b6000819050919050565b6130408161302d565b811461304b57600080fd5b50565b60008135905061305d81613037565b92915050565b6000806040838503121561307a57613079613023565b5b60006130888582860161304e565b92505060206130998582860161304e565b9150509250929050565b6130ac8161302d565b82525050565b600073ffffffffffffffffffffffffffffffffffffffff82169050919050565b60006130dd826130b2565b9050919050565b6130ed816130d2565b82525050565b60008115159050919050565b613108816130f3565b82525050565b60c08201600082015161312460008501826130a3565b50602082015161313760208501826130e4565b50604082015161314a60408501826130a3565b50606082015161315d60608501826130a3565b50608082015161317060808501826130ff565b5060a082015161318360a08501826130ff565b50505050565b600060c08201905061319e600083018461310e565b92915050565b600080fd5b600080fd5b6000601f19601f8301169050919050565b7f4e487b7100000000000000000000000000000000000000000000000000000000600052604160045260246000fd5b6131f7826131ae565b810181811067ffffffffffffffff82111715613216576132156131bf565b5b80604052505050565b6000613229613019565b905061323582826131ee565b919050565b600067ffffffffffffffff821115613255576132546131bf565b5b61325e826131ae565b9050602081019050919050565b82818337600083830152505050565b600061328d6132888461323a565b61321f565b9050828152602081018484840111156132a9576132a86131a9565b5b6132b484828561326b565b509392505050565b600082601f8301126132d1576132d06131a4565b5b81356132e184826020860161327a565b91505092915050565b6000806040838503121561330157613300613023565b5b600061330f8582860161304e565b925050602083013567ffffffffffffffff8111156133305761332f613028565b5b61333c858286016132bc565b9150509250929050565b60006020828403121561335c5761335b613023565b5b600061336a8482850161304e565b91505092915050565b61337c8161302d565b82525050565b60006020820190506133976000830184613373565b92915050565b6133a6816130d2565b82525050565b60006020820190506133c1600083018461339d565b92915050565b600081519050919050565b600082825260208201905092915050565b6000819050602082019050919050565b600081519050919050565b600082825260208201905092915050565b60005b8381101561342d578082015181840152602081019050613412565b60008484015250505050565b6000613444826133f3565b61344e81856133fe565b935061345e81856020860161340f565b613467816131ae565b840191505092915050565b600060a08301600083015161348a60008601826130a3565b50602083015161349d60208601826130a3565b50604083015184820360408601526134b58282613439565b91505060608301516134ca60608601826130a3565b5060808301516134dd60808601826130e4565b508091505092915050565b60006134f48383613472565b905092915050565b6000602082019050919050565b6000613514826133c7565b61351e81856133d2565b935083602082028501613530856133e3565b8060005b8581101561356c578484038952815161354d85826134e8565b9450613558836134fc565b925060208a01995050600181019050613534565b50829750879550505050505092915050565b600060208201905081810360008301526135988184613509565b905092915050565b6135a9816130f3565b82525050565b60006020820190506135c460008301846135a0565b92915050565b600080600080600060a086880312156135e6576135e5613023565b5b600086013567ffffffffffffffff81111561360457613603613028565b5b613610888289016132bc565b955050602086013567ffffffffffffffff81111561363157613630613028565b5b61363d888289016132bc565b945050604086013567ffffffffffffffff81111561365e5761365d613028565b5b61366a888289016132bc565b935050606061367b8882890161304e565b925050608061368c8882890161304e565b9150509295509295909350565b600081519050919050565b600082825260208201905092915050565b6000819050602082019050919050565b6000610160830160008301516136de60008601826130a3565b50602083015184820360208601526136f68282613439565b915050604083015184820360408601526137108282613439565b9150506060830151848203606086015261372a8282613439565b915050608083015161373f60808601826130a3565b5060a083015161375260a08601826130a3565b5060c083015161376560c08601826130e4565b5060e083015161377860e08601826130ff565b5061010083015161378d6101008601826130ff565b506101208301516137a26101208601826130ff565b506101408301516137b76101408601826130a3565b508091505092915050565b60006137ce83836136c5565b905092915050565b6000602082019050919050565b60006137ee82613699565b6137f881856136a4565b93508360208202850161380a856136b5565b8060005b85811015613846578484038952815161382785826137c2565b9450613832836137d6565b925060208a0199505060018101905061380e565b50829750879550505050505092915050565b6000602082019050818103600083015261387281846137e3565b905092915050565b60006101608301600083015161389360008601826130a3565b50602083015184820360208601526138ab8282613439565b915050604083015184820360408601526138c58282613439565b915050606083015184820360608601526138df8282613439565b91505060808301516138f460808601826130a3565b5060a083015161390760a08601826130a3565b5060c083015161391a60c08601826130e4565b5060e083015161392d60e08601826130ff565b506101008301516139426101008601826130ff565b506101208301516139576101208601826130ff565b5061014083015161396c6101408601826130a3565b508091505092915050565b60006020820190508181036000830152613991818461387a565b905092915050565b60008060008060008060c087890312156139b6576139b5613023565b5b60006139c489828a0161304e565b965050602087013567ffffffffffffffff8111156139e5576139e4613028565b5b6139f189828a016132bc565b955050604087013567ffffffffffffffff811115613a1257613a11613028565b5b613a1e89828a016132bc565b945050606087013567ffffffffffffffff811115613a3f57613a3e613028565b5b613a4b89828a016132bc565b9350506080613a5c89828a0161304e565b92505060a0613a6d89828a0161304e565b9150509295509295509295565b600081519050919050565b600082825260208201905092915050565b6000819050602082019050919050565b6000613ab283836130a3565b60208301905092915050565b6000602082019050919050565b6000613ad682613a7a565b613ae08185613a85565b9350613aeb83613a96565b8060005b83811015613b1c578151613b038882613aa6565b9750613b0e83613abe565b925050600181019050613aef565b5085935050505092915050565b60006020820190508181036000830152613b438184613acb565b905092915050565b600067ffffffffffffffff821115613b6657613b656131bf565b5b602082029050602081019050919050565b600080fd5b6000613b8f613b8a84613b4b565b61321f565b90508083825260208201905060208402830185811115613bb257613bb1613b77565b5b835b81811015613bdb5780613bc7888261304e565b845260208401935050602081019050613bb4565b5050509392505050565b600082601f830112613bfa57613bf96131a4565b5b8135613c0a848260208601613b7c565b91505092915050565b60008060408385031215613c2a57613c29613023565b5b6000613c388582860161304e565b925050602083013567ffffffffffffffff811115613c5957613c58613028565b5b613c6585828601613be5565b9150509250929050565b600080600060608486031215613c8857613c87613023565b5b6000613c968682870161304e565b9350506020613ca78682870161304e565b9250506040613cb88682870161304e565b9150509250925092565b613ccb816130d2565b8114613cd657600080fd5b50565b600081359050613ce881613cc2565b92915050565b600060208284031215613d0457613d03613023565b5b6000613d1284828501613cd9565b91505092915050565b600081519050919050565b600082825260208201905092915050565b6000819050602082019050919050565b60c082016000820151613d5d60008501826130a3565b506020820151613d7060208501826130e4565b506040820151613d8360408501826130a3565b506060820151613d9660608501826130a3565b506080820151613da960808501826130ff565b5060a0820151613dbc60a08501826130ff565b50505050565b6000613dce8383613d47565b60c08301905092915050565b6000602082019050919050565b6000613df282613d1b565b613dfc8185613d26565b9350613e0783613d37565b8060005b83811015613e38578151613e1f8882613dc2565b9750613e2a83613dda565b925050600181019050613e0b565b5085935050505092915050565b60006020820190508181036000830152613e5f8184613de7565b905092915050565b600082825260208201905092915050565b7f556e617574686f72697a656420656e7469747900000000000000000000000000600082015250565b6000613eae601383613e67565b9150613eb982613e78565b602082019050919050565b60006020820190508181036000830152613edd81613ea1565b9050919050565b7f4e487b7100000000000000000000000000000000000000000000000000000000600052603260045260246000fd5b7f41706172746d656e7420616c726561647920636865636b6564206f6e2074686960008201527f7320646174652100000000000000000000000000000000000000000000000000602082015250565b6000613f6f602783613e67565b9150613f7a82613f13565b604082019050919050565b60006020820190508181036000830152613f9e81613f62565b9050919050565b7f4e487b7100000000000000000000000000000000000000000000000000000000600052601160045260246000fd5b6000613fdf8261302d565b9150613fea8361302d565b9250828202613ff88161302d565b9150828204841483151761400f5761400e613fa5565b5b5092915050565b7f4e487b7100000000000000000000000000000000000000000000000000000000600052601260045260246000fd5b60006140508261302d565b915061405b8361302d565b92508261406b5761406a614016565b5b828204905092915050565b60006140818261302d565b915061408c8361302d565b92508282039050818111156140a4576140a3613fa5565b5b92915050565b7f4170706172746d656e74206e6f7420617661696c61626c650000000000000000600082015250565b60006140e0601883613e67565b91506140eb826140aa565b602082019050919050565b6000602082019050818103600083015261410f816140d3565b9050919050565b7f426f6f6b206669727374206265666f7265207265766965770000000000000000600082015250565b600061414c601883613e67565b915061415782614116565b602082019050919050565b6000602082019050818103600083015261417b8161413f565b9050919050565b7f52657669657720746578742063616e6e6f7420626520656d7074790000000000600082015250565b60006141b8601b83613e67565b91506141c382614182565b602082019050919050565b600060208201905081810360008301526141e7816141ab565b9050919050565b7f4e487b7100000000000000000000000000000000000000000000000000000000600052602260045260246000fd5b6000600282049050600182168061423557607f821691505b602082108103614248576142476141ee565b5b50919050565b60008190508160005260206000209050919050565b60006020601f8301049050919050565b600082821b905092915050565b6000600883026142b07fffffffffffffffffffffffffffffffffffffffffffffffffffffffffffffffff82614273565b6142ba8683614273565b95508019841693508086168417925050509392505050565b6000819050919050565b60006142f76142f26142ed8461302d565b6142d2565b61302d565b9050919050565b6000819050919050565b614311836142dc565b61432561431d826142fe565b848454614280565b825550505050565b600090565b61433a61432d565b614345818484614308565b505050565b5b818110156143695761435e600082614332565b60018101905061434b565b5050565b601f8211156143ae5761437f8161424e565b61438884614263565b81016020851015614397578190505b6143ab6143a385614263565b83018261434a565b50505b505050565b600082821c905092915050565b60006143d1600019846008026143b3565b1980831691505092915050565b60006143ea83836143c0565b9150826002028217905092915050565b614403826133f3565b67ffffffffffffffff81111561441c5761441b6131bf565b5b614426825461421d565b61443182828561436d565b600060209050601f8311600181146144645760008415614452578287015190505b61445c85826143de565b8655506144c4565b601f1984166144728661424e565b60005b8281101561449a57848901518255600182019150602085019450602081019050614475565b868310156144b757848901516144b3601f8916826143c0565b8355505b6001600288020188555050505b505050505050565b7f556e617574686f72697a65642074656e616e7421000000000000000000000000600082015250565b6000614502601483613e67565b915061450d826144cc565b602082019050919050565b60006020820190508181036000830152614531816144f5565b9050919050565b7f4e616d652063616e6e6f7420626520656d707479000000000000000000000000600082015250565b600061456e601483613e67565b915061457982614538565b602082019050919050565b6000602082019050818103600083015261459d81614561565b9050919050565b7f4465736372697074696f6e2063616e6e6f7420626520656d7074790000000000600082015250565b60006145da601b83613e67565b91506145e5826145a4565b602082019050919050565b60006020820190508181036000830152614609816145cd565b9050919050565b7f496d616765732063616e6e6f7420626520656d70747900000000000000000000600082015250565b6000614646601683613e67565b915061465182614610565b602082019050919050565b6000602082019050818103600083015261467581614639565b9050919050565b7f526f6f6d732063616e6e6f74206265207a65726f000000000000000000000000600082015250565b60006146b2601483613e67565b91506146bd8261467c565b602082019050919050565b600060208201905081810360008301526146e1816146a5565b9050919050565b7f50726963652063616e6e6f74206265207a65726f000000000000000000000000600082015250565b600061471e601483613e67565b9150614729826146e8565b602082019050919050565b6000602082019050818103600083015261474d81614711565b9050919050565b600061475f8261302d565b91507fffffffffffffffffffffffffffffffffffffffffffffffffffffffffffffffff820361479157614790613fa5565b5b600182019050919050565b7f4170706172746d656e74206e6f7420666f756e64000000000000000000000000600082015250565b60006147d2601483613e67565b91506147dd8261479c565b602082019050919050565b60006020820190508181036000830152614801816147c5565b9050919050565b7f556e617574686f72697a656420706572736f6e6e656c2c206f776e6572206f6e60008201527f6c79000000000000000000000000000000000000000000000000000000000000602082015250565b6000614864602283613e67565b915061486f82614808565b604082019050919050565b6000602082019050818103600083015261489381614857565b9050919050565b7f41706172746d656e74206e6f7420666f756e6421000000000000000000000000600082015250565b60006148d0601483613e67565b91506148db8261489a565b602082019050919050565b600060208201905081810360008301526148ff816148c3565b9050919050565b60006149118261302d565b915061491c8361302d565b925082820190508082111561493457614933613fa5565b5b92915050565b7f496e73756666696369656e742066756e64210000000000000000000000000000600082015250565b6000614970601283613e67565b915061497b8261493a565b602082019050919050565b6000602082019050818103600083015261499f81614963565b9050919050565b7f426f6f6b6564206461746520666f756e6420616d6f6e67206461746573210000600082015250565b60006149dc601e83613e67565b91506149e7826149a6565b602082019050919050565b60006020820190508181036000830152614a0b816149cf565b9050919050565b7f43616e206e6f206c6f6e67657220726566756e642c20626f6f6b696e6720646160008201527f7465207374617274656400000000000000000000000000000000000000000000602082015250565b6000614a6e602a83613e67565b9150614a7982614a12565b604082019050919050565b60006020820190508181036000830152614a9d81614a61565b9050919050565b7f4e487b7100000000000000000000000000000000000000000000000000000000600052603160045260246000fd5b7f4f776e61626c653a206e6577206f776e657220697320746865207a65726f206160008201527f6464726573730000000000000000000000000000000000000000000000000000602082015250565b6000614b2f602683613e67565b9150614b3a82614ad3565b604082019050919050565b60006020820190508181036000830152614b5e81614b22565b9050919050565b600081905092915050565b50565b6000614b80600083614b65565b9150614b8b82614b70565b600082019050919050565b6000614ba182614b73565b9150819050919050565b7f4f776e61626c653a2063616c6c6572206973206e6f7420746865206f776e6572600082015250565b6000614be1602083613e67565b9150614bec82614bab565b602082019050919050565b60006020820190508181036000830152614c1081614bd4565b9050919050565b7f5265656e7472616e637947756172643a207265656e7472616e742063616c6c00600082015250565b6000614c4d601f83613e67565b9150614c5882614c17565b602082019050919050565b60006020820190508181036000830152614c7c81614c40565b905091905056fea26469706673582212205a7b673e7580e2423a8f273fbc2541c32de155b3bd00ec215020f2861814b50364736f6c63430008110033",
  "linkReferences": {},
  "deployedLinkReferences": {}
}